:020000040800F2
:10000000005000208D3E0008113F0008113F0008FD
:10001000113F0008113F0008113F000800000000D8
:10002000000000000000000000000000113F000878
:10003000113F000800000000113F00086D23000878
:10004000113F0008113F0008113F0008113F000850
:10005000113F0008113F0008113F0008113F000840
:10006000113F0008113F0008113F0008113F000830
:10007000113F0008113F0008113F0008113F000820
:10008000113F0008113F0008113F0008113F000810
:10009000113F0008113F0008113F0008113F000800
:1000A000113F0008113F0008113F0008113F0008F0
:1000B000E5210008113F0008113F0008113F00082A
:1000C000113F0008113F0008113F0008113F0008D0
:1000D000113F0008113F00080D010008113F000802
:1000E000113F0008113F0008113F000880B582B0A1
:1000F00000AF0346FB71FB799BB24FF416511846D3
:1001000003F03EFC00BF0837BD4680BD80B400AFA1
:10011000094B1B889BB203F02003002B08D0064B31
:100120009B889BB2DAB2054B1A70054B01221A70FC
:1001300000BFBD4680BC704700440040580400200A
:100140005904002080B400AF2D4B1B78DBB2002B8C
:1001500051D02C4B1B78DBB2423B112B3FD801A274
:1001600052F823F0B5010008DF010008DF010008A4
:10017000DF010008AD010008DF010008DF01000811
:10018000DF010008DF010008DF010008BD010008F1
:10019000DF010008DF010008DF010008DF010008BF
:1001A000DF010008C5010008CD010008164B174A01
:1001B0001A601DE0144B164A1A6019E0154B164AD6
:1001C0001A6015E0134B154A1A6011E0114B4FF0FD
:1001D00000021A600C4B4FF000021A6008E00D4B51
:1001E0004FF000021A60084B4FF000021A6000BF87
:1001F000034B00221A7000BFBD4680BC704700BF91
:1002000059040020580400200C0500200000204163
:10021000000020C1080500200000A0C10000A0418E
:1002200090B589B000AF78603960924BFB61924B1A
:10023000BB614FF07C537B610123FB748F4BFB60F0
:100240008F4B1B681946386804F066FC0346F96852
:10025000184604F06BFD03461A468A4B1B68194684
:10026000104604F05BFC03461A46864B1A60864B28
:100270005B681946F86904F04FFC03461A46824B46
:100280009B681946104604F047FC03461A467F4B0C
:100290001A607D4BDB6883F000437C4A53607A4BE5
:1002A000DB6883F00043794A9360784ABB69D36086
:1002B000754B1C68754B1B68F968184604F036FDD1
:1002C00003461946204604F029FC03461A466E4BA5
:1002D0001A606D4B5C686D4B5B68F968184604F0FA
:1002E00025FD03461946204604F018FC03461A462D
:1002F000654B5A60644B9C68644B9B68F968184670
:1003000004F014FD03461946204604F007FC03469A
:100310001A465D4B9A605C4BDC685C4BDB68F968A5
:10032000184604F003FD03461946204604F0F6FB88
:1003300003461A46544BDA60524B1B6819467868DC
:1003400004F0EAFB03461A46514B1A60FB7C184640
:1003500004F098FC02464C4B1B681946104604F00A
:10036000E5FC03461A464B4B1A60FB7C184604F02A
:1003700089FC0246444B9B681946104604F0D6FCA3
:1003800003461A46444B1A60FB7C184604F07AFC7C
:100390000246404B1B681946104604F0C7FC034652
:1003A0007969184604F0BAFB03461A463B4B1A60BB
:1003B000384B1B68394A12681146184604F06AFD2A
:1003C00003461A46364B1A60334B1B68334A126891
:1003D0001146184604F05EFD03461A46314B1A607A
:1003E0002C4B1B68304A1360FB7C184604F04AFC17
:1003F0000246254B5B681946104604F097FC0346FD
:100400001A462A4B1A60204B1C68254B1B68264A4B
:1004100012681146184604F089FC03461946204626
:1004200004F07AFB03461A46174B1A60164B5C68B9
:100430001B4B1B681D4A12681146184604F076FCD7
:1004400003461946204604F067FB03461A460E4B46
:100450005A600D4B9C68134B1B68134A1268114677
:10046000184604F063FC03461946204604F054FB8A
:100470001EE000BF6F12833AA69B443B0AD7A33B02
:100480005C04002060040020640400207404002048
:1004900084040020880400208C04002090040020A4
:1004A00094040020980400209C040020A004002054
:1004B00003461A46214B9A60204BDC68204B1B6890
:1004C000204A12681146184604F030FC03461946CB
:1004D000204604F021FB03461A46184BDA601A4BFB
:1004E0001B681A4A12681146184604F01FFC03469E
:1004F0001A46174B1B681946104604F00FFB0346BB
:100500001A46134B1A600E4B1B68104A12681146AC
:10051000184604F00BFC03461A460E4B1B6819469E
:10052000104604F0FBFA03461A460A4B1A60084BC1
:100530001B6818462437BD4690BD00BF64040020E8
:1005400098040020A00400209404002084040020CB
:10055000600400205C04002090B5AFB004AFF860E8
:10056000B9607A60B44BC7F8A4307B68C7F89C3098
:100570004FF07E53C7F88C30D7F8A43083F0004397
:10058000C7F890304FF00003C7F894304FF07E5317
:10059000C7F89830D7F8A430C7F884304FF000037C
:1005A000C7F888304FF07E53FB674FF00003C7F861
:1005B0008030A24B07F16C040FCB84E80F00A04BF6
:1005C000BB664FF07E53BB654FF00003FB65D7F869
:1005D000A43083F000433B664FF07E537B664FF0C0
:1005E0007E533B654FF000037B6507F14803002213
:1005F0001A605A6007F1400300221A605A6007F13E
:10060000300300221A605A609A60DA6007F1200312
:1006100000221A605A609A60DA6007F1180300221B
:100620001A605A604FF000037B61FB6883F000435F
:10063000B968184604F0ACFDC7F8A00007F14803FC
:100640000293804B019307F18C0300930123022254
:100650000221022000F04AF907F14003029307F15A
:100660009C03019307F184030093012301220121DC
:10067000022000F03BF9BB6C3A6C1146184604F0BE
:100680004DFA03461A46704B1A60FB6C7A6C1146A1
:10069000184604F043FA03461A466B4B5A6007F1BA
:1006A00030030293694B019307F18C0300930223FB
:1006B00002220221022000F019F907F1200302931F
:1006C00007F15803019307F130030093022302223C
:1006D0000221022000F00AF93B6AFA6E1146184620
:1006E00004F01CFA03461A46594B1A607B6A3A6FAB
:1006F0001146184604F012FA03461A46544B5A6043
:10070000BB6A7A6F1146184604F008FA03461A4687
:100710004F4B9A60FB6ABA6F1146184604F0FEF917
:1007200003461A464A4BDA6007F118030293484B16
:10073000019307F17C03009302230222022101208E
:1007400000F0D4F807F11403029307F1500301936A
:1007500007F118030093012302220221012000F077
:10076000C5F87B69BA6E1146184604F0D7F90346FE
:1007700019464FF07E5004F08DFB03467B6107F174
:100780004803029307F150030193314B0093012377
:1007900002220221022000F0A9F82E4B029307F159
:1007A0001403019307F1480300930123012201215F
:1007B000022000F09BF807F114030293224B0193EF
:1007C00007F17C030093012302220221012000F0A3
:1007D0008DF87B691946D7F8A00004F09DF903460F
:1007E0007B6107F14803029307F114030193194B4E
:1007F0000093012301220121022000F077F8124B1F
:100800001B68BA6C1146184604F088F903461A466C
:100810000C4B1A600C4B5B68FA6C1146184604F0DE
:100820007DF903461A46074B5A6007F130030293DD
:1008300007F17C0310E000BF0AD7A33B705100080A
:1008400017B7D138A4040020AC0400200000002019
:10085000B4040020C404002001931F4B0093022322
:1008600001220121022000F041F81C4B1B683A6B69
:100870001146184604F050F903463B63174B5B687A
:100880007A6B1146184604F047F903467B63134B15
:100890009B68BA6B1146184604F03EF90346BB63E9
:1008A0000E4BDB68FA6B1146184604F035F9034627
:1008B000FB630B4B02930B4B019307F13003009347
:1008C000022302220221022000F010F8064B1B68CE
:1008D0001846AC37BD4690BDC404002080510008C6
:1008E00000000020B4040020A40400202DE9F04FF3
:1008F0008DB000AF78613961FA60BB603A697A60A7
:10090000531E3B62002392469B464FF000024FF07D
:1009100000034FEA4B1343EADA634FEA4A12BA681C
:100920003A60531EFB610023904699464FF0000247
:100930004FF000034FEA491343EAD8634FEA4812E5
:10094000BE68731EBB613246002314461D464FF03D
:1009500000024FF000036B0143EAD46362013A697D
:10096000FB689A425AD100237B6253E00023BB62AA
:1009700049E032467B6A02FB03F39B003A6E134464
:10098000BA6A4FF0000143F822100023FB6233E003
:100990007A687B6A02FB03F39B00BA6D1344FA6A20
:1009A00053F822003A68FB6A02FB03F39B00FA6DDE
:1009B0001344BA6A53F82230194604F0B7F90346D3
:1009C000184632467B6A02FB03F39B003A6E1344DF
:1009D000BA6A53F8221032467B6A02FB03F39B008B
:1009E0003A6ED41804F09AF803461A46BB6A44F8E3
:1009F0002320FB6A0133FB62FA6A3B699A42C7DB38
:100A0000BB6A0133BB62BA6ABB689A42B1DB7B6ADC
:100A100001337B627A6A7B699A42A7DB00BF343775
:100A2000BD46BDE8F08F00BF80B582B000AF7860F2
:100A30007B68DBB20022A021184600F035FE7B68FF
:100A4000DBB200221921184600F01EF87B68DBB2E9
:100A500000221B21184600F017F87B68DBB2002249
:100A60001C21184600F010F87B68DBB201226B21D4
:100A7000184600F009F80A2001F0B6FC00F017F85B
:100A800000BF0837BD4680BD80B582B000AF0346C9
:100A9000FB710B46BB7113467B717B79BA79F87990
:100AA000682100F09FFF00BF0837BD4680BD90B5AC
:100AB00083B000AF64233B603B687B60A9E03B21CF
:100AC000012000F049FA0346184603F055FD4FF0A7
:100AD00000027F4B03F0E4FE02460B461046194627
:100AE00003F0C6FF03467B4A13603D21012000F05E
:100AF00033FA0346184603F03FFD4FF00002744BF3
:100B000003F0CEFE02460B461046194603F0B0FF36
:100B10000346714A13603F21012000F01DFA03468D
:100B2000184603F029FD4FF00002694B03F0B8FEB0
:100B300002460B461046194603F09AFF0346674AE1
:100B400013604521012000F007FA0346184603F020
:100B500013FD5DA3D3E9002303F0A2FE02460B467A
:100B60001046194603F084FF03465D4A136047218F
:100B7000012000F0F1F90346184603F0FDFC52A3F2
:100B8000D3E9002303F08CFE02460B4610461946BB
:100B900003F06EFF0346534A13604E4B1B68524AE4
:100BA00012681146184603F0B9FF03461A464E4B29
:100BB0001A60494B1B684D4A12681146184603F0EB
:100BC000ADFF03461A46494B1A60444B1B68484A1E
:100BD00012681146184603F0A1FF03461A46444B1B
:100BE0001A603F4B1B68434A12681146184603F0CF
:100BF00095FF03461A463F4B1A603A4B1B683E4A24
:100C000012681146184603F089FF03461A463A4B0C
:100C10001A607B685A1E7A60002B7FF450AF324B0B
:100C20001C68386804F02EF803461946204604F084
:100C300031F903461A462C4B1A602C4B1C68386855
:100C400004F020F803461946204604F023F9034631
:100C50001A46264B1A60264B1C68386804F012F8B6
:100C600003461946204604F015F903461A46204B60
:100C70001A601F4B1B684FF07E51184603F04CFF63
:100C800003461A461A4B1A601A4B1C68386803F060
:100C9000F9FF03461946204604F0FCF803461A46BD
:100CA000144B1A60144B1C68386803F0EBFF0346C2
:100CB0001946204604F0EEF803461A460E4B1A6019
:100CC00000BF0C37BD4690BD0000000000606040D2
:100CD0000000D040D4040020D8040020DC04002010
:100CE000E0040020E4040020E8040020EC040020DC
:100CF000F0040020F4040020F8040020B0B500AF98
:100D00003B21012000F028F90346184603F034FC8B
:100D10004FF00002824B03F0C3FD02460B4614461F
:100D20001D46804B1B68184603F038FC02460B46F4
:100D30002046294603F0D2FA02460B4610461946D1
:100D400003F096FE0346784A13603D21012000F02F
:100D500003F90346184603F00FFC4FF00002704BF6
:100D600003F09EFD02460B4614461D466F4B1B6862
:100D7000184603F013FC02460B462046294603F0B2
:100D8000ADFA02460B461046194603F071FE0346C3
:100D9000674A13603F21012000F0DEF80346184641
:100DA00003F0EAFB4FF000025D4B03F079FD0246D1
:100DB0000B4614461D465F4B1B68184603F0EEFBBE
:100DC00002460B462046294603F088FA02460B46A7
:100DD0001046194603F04CFE0346574A136045215E
:100DE000012000F0B9F80346184603F0C5FB48A3FC
:100DF000D3E9002303F054FD02460B4614461D467A
:100E00004E4B1B68184603F0C9FB02460B462046B2
:100E1000294603F063FA02460B461046194603F0D2
:100E200027FE0346464A13604721012000F094F84C
:100E30000346184603F0A0FB35A3D3E9002303F0D3
:100E40002FFD02460B4614461D463E4B1B681846B6
:100E500003F0A4FB02460B462046294603F03EFA67
:100E600002460B461046194603F002FE0346364A78
:100E700013602D4B1B6883F000442D4B1B682C4ADC
:100E800012681146184603F051FF03461D462A4BCF
:100E90001B68294A12681146184603F047FF0346AB
:100EA0001946284603F03AFE0346184604F072F944
:100EB00003461946204604F06BF90346184603F032
:100EC0006DFB4FF00002214B03F0C0FB02460B46C6
:100ED0001046194610A3D3E9002303F0E1FC0246B3
:100EE0000B461046194603F0C3FD0346184A13602B
:100EF000174B1B68124A126811461846FFF790F903
:100F00000346144A1360134B1B681846B0BD00BF5C
:100F100000000000006060407FBDC282FB210940EC
:100F20000000D040E8040020D4040020EC0400209D
:100F3000D8040020F0040020DC040020F404002089
:100F4000E0040020F8040020E40400200080664053
:100F5000CC040020D004002080B584B000AF03464C
:100F60000A46FB711346BB710023BB810023FB8142
:100F700007F10C03BA79F879682100F0EBFDBB7931
:100F80000133DAB207F10C030133F879682100F07C
:100F9000E1FD3B7B1B021AB27B7B1BB21343FB813F
:100FA000B7F90E3018461037BD4680BD000000006E
:100FB000B0B586B000AF7860396079684FF0000056
:100FC00003F0AAFD03461A46434B1B681946104618
:100FD00003F0A2FD03467B61404B1B68184603F0FB
:100FE000DDFA39A3D3E9002303F030FB02460B46B8
:100FF00014461D46786903F0D1FA35A3D3E90023DE
:1010000003F024FB02460B462046294603F068F90C
:1010100002460B461046194603F02AFD03462F4AA6
:10102000136039684FF0000003F076FD03463B6122
:101030002B4B1B6883F000432A49184603F02AFF14
:1010400003467969184603F071FE03461C46234B9C
:101050001B68254A12681146184603F067FE0346CE
:101060002049184603F016FF03461946204603F0B0
:1010700053FD03461C461D4B1B683969184603F097
:1010800055FE03461749184603F004FF0346194668
:10109000204603F041FD0346184604F023F80346BA
:1010A000FB60134B1B68184600F066F90346002BE3
:1010B00003D10A4B4FF000021A60FB68184618373C
:1010C000BD46B0BDAFF3008085EB51B81E85EB3F48
:1010D000EC51B81E85EBC13F0C0500201005002027
:1010E000100000200000C84214000020180000205A
:1010F000D004002090B583B000AF7860164B1B6819
:10110000164A12681146184603F010FE03461449A9
:10111000184603F0BFFE03461C46124B1B68796855
:10112000184603F003FE03460D49184603F0B2FECD
:1011300003461946204603F0F1FC03461A460A4BC3
:101140001A60094B1B68184603F0CCFF034618468B
:101150000C37BD4690BD00BF080500201C000020D4
:101160000000C842200000201405002080B582B095
:1011700000AF7860002303220F21022000F03EF927
:10118000104BDB680F4A43F40043D3607A680023B6
:101190000821012001F0C8FE7A68002309210120FE
:1011A00001F0C2FE7A6800230A21012001F0BCFE92
:1011B0007A6800230B21012001F0B6FE00BF08373A
:1011C000BD4680BD000C014080B582B000AF7860A4
:1011D00039607B68002B05D1224B00229A86214B77
:1011E00000221A873B68002B06D11E4B00229A87EB
:1011F0001C4B0022A3F840207B68002B0ADD786896
:1012000000F0EEF80246174B92B21A87154B0022F7
:101210009A8609E0134B00221A87786800F0E0F8FC
:101220000246104B92B29A863B68002B0BDD386861
:1012300000F0D6F802460B4B92B2A3F84020094BBF
:1012400000229A870AE0074B0022A3F84020386862
:1012500000F0C6F80246034B92B29A8700BF0837E7
:10126000BD4680BD002C014080B483B000AF7860E3
:101270007B68002B03DB7B6803F5167307E07B6854
:10128000002B03DA7B68A3F5167300E07B68184631
:101290000C37BD4680BC704780B485B000AFF860A5
:1012A000B9607A60FA68BB689A4201DDBB68FB608E
:1012B000FA687B689A4201DA7B68FB60FB68184633
:1012C0001437BD4680BC704780B582B000AF7860EF
:1012D000254B1B68254A126811461846FFF768FE21
:1012E00002467B681A60224B1B681846FFF702FF14
:1012F00002467B685A607B681A687B685B68D21A12
:101300007B689A607B681A687B685B681A447B68B4
:10131000DA607B689B681846FFF7A6FF02467B6889
:101320009A607B68DB681846FFF79EFF02467B6881
:10133000DA607B689B680F4A4FF47A711846FFF7B2
:10134000ABFF02467B689A607B68DB68094A4FF412
:101350007A711846FFF7A0FF02467B68DA6000BF8B
:101360000837BD4680BD00BFD0040020E004002047
:10137000E404002018FCFFFF80B582B000AF786065
:101380001349786803F070FE0346002B0BD1114916
:10139000786803F087FE0346002B04D10E4B1B78C0
:1013A000DBB2002B0ED10D4B00229A860B4B002294
:1013B0001A870A4B00229A87084B0022A3F8402084
:1013C000002300E0012318460837BD4680BD00BF5A
:1013D0000000C8C10000C84118050020002C0140D1
:1013E00080B483B000AF78607B68002BB8BF5B42ED
:1013F00018460C37BD4680BC704700BF90B484B01F
:1014000000AF0446084611461A462346FB800346B1
:10141000BB800B467B8013463B80BB887B810023CF
:101420003B81BB88072B04D97B89083B7B81012347
:101430003B81FB88012B0DD1274B1B68264A43F0CB
:10144000040313603B899B0003F1804303F584335D
:10145000FB6020E0FB88022B0DD11F4B1B681E4A4E
:1014600043F0080313603B899B0003F1804303F5BD
:101470008633FB600FE0FB88032B0CD1164B1B68F7
:10148000154A43F0100313603B899B0003F180432E
:1014900003F58833FB60FB681B687A8992000F2193
:1014A00001FA02F2D2431A40FB681A60FB681B681B
:1014B00079887A899200914038887A89920002323C
:1014C00000FA02F20A431A43FB681A6000BF1037A1
:1014D000BD4690BC704700BF1810024080B487B072
:1014E00000AF03460A46FB801346BB8002233B61E4
:1014F000FB88012B07D13B699B0003F1804303F577
:1015000084337B6114E0FB88022B07D13B699B008D
:1015100003F1804303F586337B6109E0FB88032BED
:1015200006D13B699B0003F1804303F588337B615F
:101530007B691B68BA88012101FA02F21A40BB8854
:1015400022FA03F3FB60FB6818461C37BD4680BCDB
:10155000704780B485B000AF0346FB800B46BB806C
:1015600013467B800323BB60FB88012B07D1BB683C
:101570009B0003F1804303F58433FB6014E0FB8898
:10158000022B07D1BB689B0003F1804303F5863330
:10159000FB6009E0FB88032B06D1BB689B0003F1CD
:1015A000804303F58833FB607B88002B09D0FB6800
:1015B0001B687988BA8801FA02F21A43FB681A603C
:1015C00009E0FB681B68BA88012101FA02F2D243E4
:1015D0001A40FB681A6000BF1437BD4680BC7047D4
:1015E00080B582B000AF03460A46FB801346BB803D
:1015F000BA88FB8811461846FFF770FF0346002B98
:1016000006D0B988FB8800221846FFF7A2FF05E044
:10161000B988FB8801221846FFF79BFF00BF0837F7
:10162000BD4680BD80B483B000AF03460A46FB8050
:101630001346BB80BB88002B0AD00D4BDB68B988F2
:10164000FA8801FA02F21146094A0B43D3600AE014
:10165000074BDB68FA88012101FA02F2D2431146F6
:10166000034A0B40D36000BF0C37BD4680BC7047B7
:101670000010014080B500AF002303220D2103209C
:10168000FFF7BCFE00BF80BD80B582B000AF03464F
:10169000FB80FB881A460D210320FFF75AFF00BF8D
:1016A0000837BD4680BD00BF80B582B000AF03469D
:1016B000FB710B46BB801346BB71554B9B69544A6B
:1016C00043F001039361FB79012B62D1504BDB693D
:1016D0004F4A43F40013D36103230322062102205F
:1016E000FFF78CFE0323032207210220FFF786FE6B
:1016F000484B1B889BB2474A6FEA43436FEA534308
:101700009BB21380434B1B889BB2424AC3F30E0328
:101710009BB21380BB79002B1FD03E4B1B889BB222
:101720003C4A23F080039BB213803A4B1B889BB248
:10173000384A23F040039BB21380364B9B889BB200
:10174000344A43F480539BB29380324B9B889BB2C4
:10175000304A43F400639BB293802E4B9B889BB22C
:101760002C4A43F024039BB293802A4B9B8B9AB262
:101770002849BB8813439BB28B83264B21221A84B2
:10178000244B1B889BB2234A43F001039BB2138076
:1017900039E01F4BDB691E4A43F48003D361032306
:1017A00003220A210220FFF729FE032303220B2133
:1017B0000220FFF723FE184B1B889BB2164A6FEAE4
:1017C00043436FEA53439BB21380134B1B889BB276
:1017D000114AC3F30E039BB213800F4B9B889BB23D
:1017E0000D4A43F024039BB293800B4ABB8893833A
:1017F000094B09221A84084B1B889BB2064A43F006
:1018000001039BB2138000BF0837BD4680BD00BFF7
:1018100000100240005400400058004080B483B0E3
:1018200000AF0346FB71FB79012B18D11A4B1B88C3
:101830009BB2194A43F480639BB21380164B1B88FA
:101840009BB2154A43F480739BB2138000BF124BC6
:101850009B8A9BB203F00103002BF8D017E00F4BDB
:101860001B889BB20D4A43F480639BB213800B4BE1
:101870001B889BB2094A43F480739BB2138000BF5C
:10188000064B9B8A9BB203F00103002BF8D000BFEC
:101890000C37BD4680BC70470054004000580040E3
:1018A00080B483B000AF0346FB710B46BB71134697
:1018B0007B71FB79012B16D1BB795B001AB27B7966
:1018C0001BB213431AB2154B92B21A8200BF134BCC
:1018D0009B8A9BB203F00203002BF8D00F4B9B8A2C
:1018E0000E4B1B8B15E0BB795B001AB27B791BB2E8
:1018F00013431AB20A4B92B21A8200BF084B9B8A5A
:101900009BB203F00203002BF8D0054B9B8A044BDB
:101910001B8B00BF0C37BD4680BC70470054004095
:101920000058004080B483B000AF03460A46FB7104
:101930001346BB71FB79012B14D100BF164B9B8A58
:101940009BB203F08003002BF8D0134BBA7992B20C
:101950001A8200BF104B9B8A9BB203F00403002B3A
:10196000F8D013E000BF0D4B9B8A9BB203F08003BD
:10197000002BF8D0094BBA7992B21A8200BF074BFC
:101980009B8A9BB203F00403002BF8D000BF0C37F6
:10199000BD4680BC704700BF005400400058004066
:1019A00080B483B000AF0346FB71FB79012B08D1F3
:1019B0000A4B1B889BB2094A43F400739BB2138005
:1019C00007E0074B1B889BB2054A43F400739BB2A8
:1019D000138000BF0C37BD4680BC704700540040E8
:1019E0000058004090B583B000AF04460846114649
:1019F0001A462346FB710346BB710B467B711346A7
:101A00003B71FB791846FFF709FFB979FB79002292
:101A10001846FFF745FF7A79FB7911461846FFF71C
:101A200081FF3A79FB7911461846FFF77BFFFB7976
:101A30001846FFF7B5FF00BF0C37BD4690BD80B517
:101A400082B000AF03463A60FB710B46BB71FB7975
:101A5000012B3BD1FB791846FFF7E0FEBB795B0019
:101A60001BB243F001031AB2384B92B21A8200BF84
:101A7000364B9B8A9BB203F00203002BF8D0334B0A
:101A80001B889BB2314A23F480639BB213802F4B97
:101A90009B8A2E4B1B8B2D4B1B889BB22B4A43F4EE
:101AA00000739BB2138000BF284B9B8A9BB203F04C
:101AB0004003002BF8D0254B1B8A9BB2DAB23B685F
:101AC0001A70FB791846FFF76BFF3AE0FB7918466E
:101AD000FFF7A4FEBB795B001BB243F001031AB20F
:101AE0001B4B92B21A8200BF194B9B8A9BB203F028
:101AF0000203002BF8D0164B1B889BB2144A23F428
:101B000080639BB21380124B9B8A114B1B8B104B33
:101B10001B889BB20E4A43F400739BB2138000BF34
:101B20000B4B9B8A9BB203F04003002BF8D0084B71
:101B30001B8A9BB2DAB23B681A70FB791846FFF732
:101B40002FFF00BF0837BD4680BD00BF00540040D6
:101B50000058004080B582B000AF3B600346FB7187
:101B60000B46BB7113467B71FB791846FFF756FE97
:101B7000B979FB7900221846FFF792FE7A79FB7952
:101B800011461846FFF7CEFEB979FB793A68184638
:101B9000FFF755FF00BF0837BD4680BD80B584B054
:101BA00000AF3B600346FB710B46BB7113467B7174
:101BB000FB791846FFF732FEB979FB790022184607
:101BC000FFF76EFE7A79FB7911461846FFF7AAFEF9
:101BD000FB79012B49D1FB791846FFF71FFEBB7932
:101BE0005B001BB243F001031AB24A4B92B21A8255
:101BF00000BF484B9B8A9BB203F00203002BF8D036
:101C0000444B9B8A434B1B8B0023FB7328E000BF94
:101C1000404B9B8A9BB203F04003002BF8D03D4B16
:101C20001B8A9BB2DAB23B681A70FB7B5A1C3B7E64
:101C30009A420FD1374B1B889BB2364A23F48063FC
:101C40009BB21380334B1B889BB2324A43F4007320
:101C50009BB21380FB7B0133FB733B6801333B601A
:101C6000FA7B3B7E9A42D2D350E0FB791846FFF7CD
:101C7000D5FDBB795B001BB243F001031AB2264BC2
:101C800092B21A8200BF244B9B8A9BB203F00203DC
:101C9000002BF8D0204B1B889BB21F4A23F4806393
:101CA0009BB213801C4B9B8A1B4B1B8B0023BB736B
:101CB00028E000BF184B9B8A9BB203F04003002B27
:101CC000F8D0154B1B8A9BB2DAB23B681A70BB7B0B
:101CD0005A1C3B7E9A420FD10F4B1B889BB20E4A77
:101CE00023F480639BB213800B4B1B889BB20A4A80
:101CF00043F400739BB21380BB7B0133BB733B681F
:101D000001333B60BA7B3B7E9A42D2D300BF10378F
:101D1000BD4680BD005400400058004080B582B0F0
:101D200000AF3A601A460346FB710B46BB80134670
:101D3000BB71304B5B692F4A43F001035361B98893
:101D4000FB7901221846FFF7AFFCFB79012B26D166
:101D5000294B00221A60284B284A9A60264A3B6881
:101D6000D360254ABB795360234B1B68224A43F05A
:101D7000A2031360224B1B68214A43F48033136093
:101D80001D4B1B681C4A43F0010313601D4B9B88CD
:101D90009BB21C4A43F400639BB2938025E01A4B2C
:101DA00000221A60184B194A9A60174A3B68D360A0
:101DB000154ABB795360144B1B68134A43F0A203C6
:101DC00013600F4B1B680E4A43F4804313600E4BA5
:101DD0001B680D4A43F0010313600D4B9B889BB2B7
:101DE0000B4A43F400639BB2938000BF0837BD46A3
:101DF00080BD00BF001002406C0002401054004043
:101E000000E100E00054004044000240105800404F
:101E10000058004080B400AF0F4B5B690E4A43F09E
:101E2000010353610D4B00221A6000BF0B4B1B686E
:101E300003F00103002BF9D1084B1B68074A43F05C
:101E40009E031360064B1B68054A43F480331360FE
:101E500000BFBD4680BC7047001002406C000240CD
:101E600000E100E080B582B000AF03463960FB714D
:101E70001346BB7100BF1A4B1B8B9BB203F00203CE
:101E8000002BF8D1164B1B889BB2154A43F4807384
:101E90009BB2138000BF124B9B8A9BB203F00103DD
:101EA000002BF8D00E4B9B8AFB799BB20C4A5B004F
:101EB0009BB2138200BF0A4B9B8A9BB203F00203C2
:101EC000002BF8D0BB791946386800F00BF8044BAA
:101ED0009B8A034B1B8B00BF0837BD4680BD00BFEC
:101EE0000054004080B483B000AF78600B46FB70B4
:101EF0007B68002B1FD0124B1B68114A23F0010393
:101F0000136000BF0E4B1B6803F00103002BF9D1D7
:101F10000B4A7B68D3600A4B0A4A9A60084AFB78EE
:101F20005360094B4FF470025A60054B1B68044A1A
:101F300043F00103136000BF0C37BD4680BC7047FF
:101F40006C000240105400400000024080B400AF1A
:101F50000F4B5B690E4A43F0010353610D4B0022A6
:101F60001A6000BF0B4B1B6803F00103002BF9D173
:101F7000084B1B68074A43F08E031360064B1B682F
:101F8000054A43F40033136000BFBD4680BC704770
:101F9000001002408000024000E100E080B582B005
:101FA00000AF3A601A460346FB710B46BB711346FD
:101FB0007B710120FFF732FCFB79002219460120DA
:101FC000FFF76EFCBB7919460120FFF7ABFC224BF3
:101FD0001B889BB2204A43F480739BB2138000BFDE
:101FE0001D4B9B8A9BB203F00103002BF8D0FB79B9
:101FF0005B001BB243F001031AB2174B92B21A8274
:1020000000BF154B9B8A9BB203F00203002BF8D054
:102010007B79022B13D8104B1B889BB20E4A23F4FA
:1020200080639BB213800C4B9B8A0B4B1B8B0A4B20
:102030001B889BB2084A43F400739BB21380064B83
:102040009B8A054B1B8B7B791946386800F006F894
:1020500000BF0837BD4680BD0054004080B483B047
:1020600000AF78600B46FB707B68002B1FD0124BD3
:102070001B68114A23F00103136000BF0E4B1B685D
:1020800003F00103002BF9D10B4A7B68D3600A4BA4
:102090000A4A9A60084AFB785360094B4FF0706215
:1020A0005A60054B1B68044A43F00103136000BFEC
:1020B0000C37BD4680BC7047800002401054004081
:1020C0000000024080B500AF00F042F800F09EF939
:1020D00000F0A6F84FF47A70FFF748F80220FEF7F8
:1020E00005F80120FEF7A0FC0521022001F01FF9F0
:1020F0000B21022000F0B2F803461A46104B1A706A
:10210000FEF720F80F4B1B78DBB2002BF0D0FEF768
:10211000F5FD0D48FFF7D8F80C4B1B681846FFF784
:102120002BF90346012B07D1074B9B68064AD2685F
:1021300011461846FFF748F8024B00221A70D7E7FD
:10214000180500201905002020050020D0040020DB
:1021500080B400AF214B1B68204A43F00203136098
:102160001F4B1B681E4A43F48033136000BF1C4B97
:102170001B6803F40033002BF9D0194B5B68184A35
:1021800043F480335360164B5B68154A43F4E01305
:102190005360134B5B68124A43F480635360104BE7
:1021A0001B680F4A43F08073136000BF0C4B1B6821
:1021B00003F00073002BF9D0094B5B68084A43F029
:1021C0000203536000BF064B5B6803F00803002B5B
:1021D000F9D000BF00BFBD4680BC70470020024060
:1021E0000010024080B400AF4FF080431B8A9BB2C6
:1021F00003F00103002B0CD04FF080431B8A9BB2ED
:102200004FF0804223F001039BB21382034B012263
:102210001A7000BFBD4680BC704700BF1905002082
:1022200080B500AF0223002200210220FFF7E6F86C
:10223000094BDB68084A43F00103D3600223002204
:102240000B210220FFF7DAF8034BDB68024A43F464
:102250000063D36000BF80BD000C014080B582B038
:1022600000AF03460A46FB711346BB71124B1A8836
:10227000124B1A80114B1B881A46114B1B88D31A1C
:10228000012B13DDBA79FB791146184600F01CF8D2
:102290000346002B06D00B4B1B7883F00103DAB208
:1022A000084B1A70044B1A88054B1A80054B1B7893
:1022B00018460837BD4680BD1A0500201C050020C1
:1022C0001E0500203005002080B485B000AF034615
:1022D0000A46FB711346BB710223BB60FB79032BDB
:1022E00016D0032B1CDC012B02D0022B08D017E0E8
:1022F000BB689B0003F1804303F58433FB6012E06D
:10230000BB689B0003F1804303F58633FB600AE062
:10231000BB689B0003F1804303F58833FB6002E058
:102320000023FB6000BF104B1B885B001AB2FB68E8
:102330001B68B979012000FA01F11940BB7921FA33
:1023400003F31BB213431BB29AB2074B1A80064B1E
:102350001B880F2B0CBF01230023DBB21846143758
:10236000BD4680BC704700BF2400002080B400AF91
:10237000044B1B8801339AB2024B1A8000BFBD4642
:1023800080BC70471A05002080B400AF094B0022C2
:102390001A60084B6FF07F425A60064B00229A6029
:1023A000044B1B68034A43F00503136000BFBD469E
:1023B00080BC704710E000E080B400AF084B094AD1
:1023C0005A60074B00229A6000BF054B1B6803F45C
:1023D0008033002BF9D000BF00BFBD4680BC7047E2
:1023E00010E000E04019010080B582B000AF7860D5
:1023F00004E0FFF7E1FF7B68013B7B607B68002B1B
:10240000F7D100BF00BF0837BD4680BD80B400AF24
:10241000094B00221A60084B084A5A60064B0022FA
:102420009A60054B1B68044A43F00703136000BF22
:10243000BD4680BC704700BF10E000E040190100BD
:1024400080B584B000AFF860B9607A60FB681B8823
:10245000002B19D0FB680C331B88002B0DD1FB68B7
:1024600000221A80FB68023301221A80FB680A33BB
:1024700000221A80FFF788FF41E0FB680C331A88BE
:10248000013A92B21A803AE0BB681B88002B19D03F
:10249000BB680C331B88002B0DD1BB6800221A804F
:1024A000BB68023301221A80BB680A3300221A80FB
:1024B000FFF76AFF23E0BB680C331A88013A92B237
:1024C0001A801CE07B681B88002B18D07B680C33BB
:1024D0001B88002B0DD17B6800221A807B68023399
:1024E00001221A807B680A3300221A80FFF74CFF12
:1024F00005E07B680C331A88013A92B21A8000BF5B
:102500001037BD4680BD00BF80B400AF62B600BFCB
:10251000BD4680BC704780B400AF72B600BFBD46F8
:1025200080BC704780B485B000AF0346FB71FB7977
:10253000013B032B17D801A252F823F04D250008C8
:10254000532500085B25000861250008094BFB6046
:1025500009E04FF08043FB6005E0074BFB6002E0C1
:10256000064BFB6000BFFB6818461437BD4680BCB5
:10257000704700BF002C01400004004000080040EC
:1025800080B584B000AF03463960FB714723FB6020
:10259000FB79012B06D1184B9B69174A43F4006362
:1025A00093610AE0144BDB69FA79023A012101FADE
:1025B00002F21146104A0B43D361FB791846FFF72C
:1025C000B1FFB860BB6800229A84FB689AB2BB680E
:1025D0001A853B689BB2013B9AB2BB689A85BB687F
:1025E0001B889BB243F001039AB2BB681A80BB6898
:1025F00018461037BD4680BD0010024080B584B03B
:1026000000AF03463960FB7148F69F43FB60FB79DE
:10261000012B06D1184B9B69174A43F40063936161
:102620000AE0154BDB69FA79023A012101FA02F25C
:102630001146114A0B43D361FB791846FFF772FF2D
:10264000B860BB6800229A84FB689AB2BB681A859E
:102650003B689BB25B009AB2BB689A85BB681B88DB
:102660009BB243F001039AB2BB681A80BB6818465C
:102670001037BD4680BD00BF0010024080B586B057
:1026800000AF0346FB71FB791846FFF74BFF7861FB
:102690007B691B8D9BB23B617B699B8C9BB21A460D
:1026A0003B6902FB03F3064A82FB03121A449211B0
:1026B000DB17D31AFB60FB6818461837BD4680BD90
:1026C00049B4C2E680B584B000AF0346FB71FB7924
:1026D0001846FFF7D3FF0346054A82FB0312921107
:1026E000DB17D31AFB60FB6818461037BD4680BD68
:1026F000D34D621080B584B000AF03463960FB71E2
:10270000FB7939681846FFF73BFFF860FB681B88C8
:102710009BB243F009039AB2FB681A8000BFFB68C2
:102720001B889BB203F00103002BF8D100BF00BF50
:102730001037BD4680BD80B584B000AF0346396018
:10274000FB710023FB600023FB6008E0FB794FF482
:102750007A711846FFF7CEFFFB680133FB60FA6819
:102760003B689A42F2DB00BF00BF1037BD4680BD18
:1027700080B582B000AF786079680420FFF7BAFFB7
:1027800000BF0837BD4680BD80B582B000AF78601D
:1027900079680420FFF7CFFF00BF0837BD4680BD32
:1027A00080B584B000AF03463960FB71FB793968AE
:1027B0001846FFF7E5FEF860FB689B899BB243F083
:1027C00001039AB2FB689A81FFF7A5FEFB79013BF2
:1027D000032B27D801A252F823F000BFED270008F1
:1027E000FB2700080928000817280008104B1B6861
:1027F0000F4A43F00073136014E00D4B1B680C4A42
:1028000043F0805313600DE0094B1B68084A43F006
:102810000053136006E0064B1B68054A43F08043F3
:10282000136000BFFFF770FE00BF1037BD4680BDCC
:1028300000E100E080B584B000AF03463960FB7171
:10284000FB7939681846FFF7D9FEF860FB689B8969
:102850009BB243F001039AB2FB689A81FFF75BFEDB
:10286000FB79013B032B27D801A252F823F000BFCC
:10287000812800088F2800089D280008AB28000840
:10288000104B1B680F4A43F00073136014E00D4BAC
:102890001B680C4A43F0805313600DE0094B1B6822
:1028A000084A43F00053136006E0064B1B68054AD4
:1028B00043F08043136000BFFFF726FE00BF1037D0
:1028C000BD4680BD00E100E080B584B000AF0346A6
:1028D000FB71FB791846FFF725FEF860FB681B8A41
:1028E0009BB223F001039AB2FB681A8200BF103733
:1028F000BD4680BD80B584B000AF0346FB71FB7957
:102900001846FFF70FFEF860FB689B899BB223F027
:1029100001039AB2FB689A81FFF7FDFDFB79013B49
:10292000032B2FD801A252F823F000BF3D29000845
:102930004F2900086129000873290008144BD3F8B7
:102940008030134A43F00073C2F880301AE0104B15
:10295000D3F880300E4A43F08053C2F8803011E043
:102960000B4BD3F880300A4A43F00053C2F8803052
:1029700008E0074BD3F88030054A43F08043C2F8A3
:10298000803000BFFFF7C0FD00BF1037BD4680BDDF
:1029900000E100E080B584B000AF0346FB71FB7935
:1029A0001846FFF7BFFDF860FB6800221A80FB792C
:1029B000012B06D10D4B9B690C4A23F400639361F4
:1029C0000BE00A4BDB69FA79023A012101FA02F2C3
:1029D000D2431146054A0B40D361FB791846FFF7F5
:1029E00089FF00BF1037BD4680BD00BF0010024008
:1029F00080B483B000AF03460A46FB711346BB7137
:102A0000FB79012B34D1BB790B2B2FD801A252F8C3
:102A100023F000BF452A0008492A00084D2A000873
:102A2000512A00086D2A00086D2A0008552A00085E
:102A3000592A00085D2A0008612A0008652A000852
:102A4000692A000801233CE002233AE0032338E02E
:102A5000042336E0012334E0022332E0012330E096
:102A600002232EE003232CE004232AE0002328E0A5
:102A7000FB79022B24D1BB79092B1FD801A252F874
:102A800023F000BFAD2A0008B12A0008BD2A0008C3
:102A9000BD2A0008BD2A0008BD2A0008BD2A00087A
:102AA000BD2A0008B52A0008B92A0008032308E057
:102AB000042306E0032304E0042302E0002300E0F3
:102AC000002318460C37BD4680BC704780B483B0E5
:102AD00000AF03460A46FB711346BB71FB79012B1D
:102AE00016D1BB79032B01D8022324E0BB79072B35
:102AF00004D9BB790B2B01D801231CE0BB79052B32
:102B000004D9BB79072B01D8032314E0002312E07A
:102B1000FB79022B0ED1BB79012B01D803230AE0EC
:102B2000BB79052B04D9BB79092B01D8042302E01A
:102B3000002300E0002318460C37BD4680BC7047D8
:102B400080B483B000AF03460A46FB711346BB71E5
:102B5000FB79012B17D1BB79032B02D84FF08043AF
:102B600024E0BB79072B04D9BB790B2B01D8124B7E
:102B70001CE0BB79052B04D9BB79072B01D80F4B7F
:102B800014E0002312E0FB79022B0ED1BB79012B5C
:102B900001D80A4B0AE0BB79052B04D9BB79092B74
:102BA00001D8074B02E0002300E0002318460C3751
:102BB000BD4680BC704700BF002C014000040040AF
:102BC0000008004080B586B000AFBA607B60034665
:102BD000FB730B46BB73BA7BFB7B11461846FFF7B2
:102BE000AFFF7861BA7BFB7B11461846FFF76EFF9B
:102BF0000346FB74BA7BFB7B11461846FFF7F8FED1
:102C00000346BB747B691B8C9BB21A46BB7C013BA1
:102C10009B0042FA03F303F00103002B76D1FB7C07
:102C2000012B06D1514B9B69504A43F400639361D9
:102C30000AE04E4BDB69FA7C023A012101FA02F20A
:102C400011464A4A0B43D361FB7B98B2BB7B99B2D6
:102C500002230322FEF7D2FB7B6947221A85BB7C45
:102C6000013B032B2ED801A252F823F07D2C000843
:102C70008F2C0008A12C0008B32C00087B691B8B4B
:102C80009BB243F030039AB27B691A831AE07B69E6
:102C90001B8B9BB243F440539AB27B691A8311E0B9
:102CA0007B699B8B9BB243F030039AB27B699A831A
:102CB00008E07B699B8B9BB243F440539AB27B69DB
:102CC0009A8300BF7B691B8C9BB21AB2BB7C013B11
:102CD0009B00012101FA03F31BB213431BB29AB20A
:102CE0007B691A847B69B3F844309BB26FEA434333
:102CF0006FEA53439AB27B69A3F844207B691B882F
:102D00009BB243F001039AB27B691A80BB689BB205
:102D1000013B9AB27B699A85BB7C013B032B20D88F
:102D200001A252F823F000BF392D0008432D0008FE
:102D30004D2D0008572D00087B689AB27B699A8652
:102D40000FE07B689AB27B691A870AE07B689AB2C7
:102D50007B699A8705E07B689AB27B69A3F840207B
:102D600000BF00BF1837BD4680BD00BF0010024045
:102D700080B586B000AFBA607B600346FB730B463C
:102D8000BB73BA7BFB7B11461846FFF7D9FE78610F
:102D9000BA7BFB7B11461846FFF798FE0346FB748F
:102DA000BA7BFB7B11461846FFF722FE0346BB7435
:102DB0007B691B8C9BB21A46BB7C013B9B0042FA91
:102DC00003F303F00103002B78D1FB7C012B06D128
:102DD000544B9B69534A43F4006393610AE0514B9F
:102DE000DB69FA7C023A012101FA02F211464D4AEE
:102DF0000B43D361FB7B98B2BB7B99B202230322C6
:102E0000FEF7FCFA7B6948F69F421A85BB7C013BC2
:102E1000032B2FD801A252F823F000BF2D2E00085B
:102E20003F2E0008512E0008632E00087B691B8B83
:102E30009BB243F030039AB27B691A831AE07B6934
:102E40001B8B9BB243F440539AB27B691A8311E007
:102E50007B699B8B9BB243F030039AB27B699A8368
:102E600008E07B699B8B9BB243F440539AB27B6929
:102E70009A8300BF7B691B8C9BB21AB2BB7C013B5F
:102E80009B00012101FA03F31BB213431BB29AB258
:102E90007B691A847B69B3F844309BB26FEA434381
:102EA0006FEA53439AB27B69A3F844207B691B887D
:102EB0009BB243F001039AB27B691A80BB689BB254
:102EC0005B009BB2013B9AB27B699A857B685B0091
:102ED0007B60BB7C013B032B1FD801A252F823F07F
:102EE000F12E0008FB2E0008052F00080F2F000808
:102EF0007B689AB27B699A860FE07B689AB27B699D
:102F00001A870AE07B689AB27B699A8705E07B683A
:102F10009AB27B69A3F8402000BF00BF1837BD46B6
:102F200080BD00BF0010024080B586B000AFBA601F
:102F30007B600346FB730B46BB73BA7BFB7B11467E
:102F40001846FFF7FDFD7861BA7BFB7B11461846FA
:102F5000FFF7BCFD0346FB74BA7BFB7B11461846AA
:102F6000FFF746FD0346BB747B691B8C9BB21A4678
:102F7000BB7C013B9B0042FA03F303F00103002BEF
:102F800076D1FB7C012B06D1514B9B69504A43F40F
:102F9000006393610AE04E4BDB69FA7C023A01213F
:102FA00001FA02F211464A4A0B43D361FB7B98B205
:102FB000BB7B99B202230322FEF720FA7B6923220E
:102FC0001A85BB7C013B032B2ED801A252F823F0BB
:102FD000E12F0008F32F0008053000081730000823
:102FE0007B691B8B9BB243F060039AB27B691A83A7
:102FF0001AE07B691B8B9BB243F4C0439AB27B6996
:103000001A8311E07B699B8B9BB243F060039AB2F9
:103010007B699A8308E07B699B8B9BB243F4C04336
:103020009AB27B699A8300BF7B691B8C9BB21AB2F0
:10303000BB7C013B9B00012101FA03F31BB213434C
:103040001BB29AB27B691A847B69B3F844309BB295
:103050006FEA43436FEA53439AB27B69A3F8442073
:103060007B691B889BB243F001039AB27B691A808B
:10307000BB689BB2013B9AB27B699A85BB7C013BE2
:10308000032B20D801A252F823F000BF9D30000886
:10309000A7300008B1300008BB3000087B689AB246
:1030A0007B699A860FE07B689AB27B691A870AE08F
:1030B0007B689AB27B699A8705E07B689AB27B69E4
:1030C000A3F8402000BF00BF1837BD4680BD00BF39
:1030D0000010024080B586B000AFBA607B60034646
:1030E000FB730B46BB73BA7BFB7B11461846FFF79D
:1030F00027FD7861BA7BFB7B11461846FFF7E6FC9B
:103100000346FB74BA7BFB7B11461846FFF770FC45
:103110000346BB747B691B8C9BB21A46BB7C013B8C
:103120009B0042FA03F303F00103002B78D1FB7CF0
:10313000012B06D1544B9B69534A43F400639361BE
:103140000AE0514BDB69FA7C023A012101FA02F2F2
:1031500011464D4A0B43D361FB7B98B2BB7B99B2BE
:1031600002230322FEF74AF97B6948F69F421A853B
:10317000BB7C013B032B2FD801A252F823F000BFE8
:1031800091310008A3310008B5310008C7310008AB
:103190007B691B8B9BB243F060039AB27B691A83F5
:1031A0001AE07B691B8B9BB243F4C0439AB27B69E4
:1031B0001A8311E07B699B8B9BB243F060039AB248
:1031C0007B699A8308E07B699B8B9BB243F4C04385
:1031D0009AB27B699A8300BF7B691B8C9BB21AB23F
:1031E000BB7C013B9B00012101FA03F31BB213439B
:1031F0001BB29AB27B691A847B69B3F844309BB2E4
:103200006FEA43436FEA53439AB27B69A3F84420C1
:103210007B691B889BB243F001039AB27B691A80D9
:10322000BB689BB25B009BB2013B9AB27B699A85FB
:103230007B685B007B60BB7C013B032B1FD801A23A
:1032400052F823F0553200085F3200086932000856
:10325000733200087B689AB27B699A860FE07B68BC
:103260009AB27B691A870AE07B689AB27B699A876F
:1032700005E07B689AB27B69A3F8402000BF00BFDD
:103280001837BD4680BD00BF0010024080B584B035
:1032900000AF03463960FB714723FB60FB79012BCC
:1032A00006D1184B9B69174A43F4006393610AE007
:1032B000144BDB69FA79023A012101FA02F2114654
:1032C000104A0B43D361FB791846FFF72BF9B8601E
:1032D000BB6800229A84FB689AB2BB681A853B6877
:1032E0009BB2013B9AB2BB689A85BB681B889BB2B4
:1032F00043F001039AB2BB681A8000BF1037BD4685
:1033000080BD00BF0010024080B584B000AF03460E
:10331000FB71FB791846FFF705F9F860FB689B8C99
:103320009BB2BB60BB6818461037BD4680BD80B5F8
:1033300084B000AF03463960FB71FFF7ECF848F644
:103340009F43FB60FB79012B06D1334B9B69324ACB
:1033500043F4006393610AE02F4BDB69FA79023A88
:10336000012101FA02F211462B4A0B43D361FB798A
:103370001846FFF7D7F8B860BB6800229A84FB684C
:103380009AB2BB681A853B689BB25B009BB2013B5B
:103390009AB2BB689A85BB689B899BB243F00103D4
:1033A0009AB2BB689A81FB79013B032B26D801A214
:1033B00052F823F0C5330008D3330008E133000886
:1033C000EF330008154B1B68144A43F00073136079
:1033D00014E0124B1B68114A43F0805313600DE058
:1033E0000E4B1B680D4A43F00053136006E00B4B75
:1033F0001B680A4A43F08043136000BFBB681B8808
:103400009BB243F001039AB2BB681A80FFF77CF8C5
:1034100000BF1037BD4680BD0010024000E100E053
:1034200080B584B000AF0346FB71FB791846FFF707
:1034300079F8F860FB689B8C9BB2BB60BB68184650
:103440001037BD4680BD80B584B000AF3A601A46E3
:103450000346FB710B46BB7113467B71BA79FB794E
:1034600011461846FFF76CFBF860BA79FB791146F4
:103470001846FFF72BFB0346FB72BA79FB7911461E
:103480001846FFF7B5FA0346BB72FFF744F8FB682E
:103490001B8C9BB21A46BB7A013B9B0042FA03F39A
:1034A00003F00103002B40F09580FB7A012B06D13D
:1034B000614B9B69604A43F4006393610AE05E4B91
:1034C000DB69FA7A023A012101FA02F211465A4AFC
:1034D0000B43D361FB7998B2BB7999B202230022E6
:1034E000FDF78CFFFB6847221A85BB7A013B032B53
:1034F0002ED801A252F823F0093500081B35000828
:103500002D3500083F350008FB681B8B9BB243F04C
:1035100001039AB2FB681A831AE0FB681B8B9BB20B
:1035200043F480739AB2FB681A8311E0FB689B8BAB
:103530009BB243F001039AB2FB689A8308E0FB68F0
:103540009B8B9BB243F480739AB2FB689A8300BF53
:10355000FB689B899BB21AB2BB7A012101FA03F383
:103560001BB213431BB29AB2FB689A81FB681B8C97
:103570009BB21AB2BB7A013B9B00012101FA03F313
:103580001BB213431BB29AB2FB681A84FB689B8B75
:103590009BB243F00C039AB2FB689A83FB68B3F8C2
:1035A00044309BB26FEA43436FEA53439AB2FB68DD
:1035B000A3F84420FB681B889BB243F001039AB236
:1035C000FB681A801D4B1B681C4A43F000531360B4
:1035D000FEF79AFF7B79002B11D0FB681B8C9BB206
:1035E0001AB2BB7A013B9B000133012101FA03F3BC
:1035F0001BB213431BB29AB2FB681A8412E0FB6839
:103600001B8C9BB21AB2BB7A013B9B000133012198
:1036100001FA03F31BB2DB431BB213401BB29AB295
:10362000FB681A843B689BB2013B9AB2FB689A859F
:1036300000BF1037BD4680BD0010024000E100E031
:1036400080B584B000AF3A601A460346FB710B4662
:10365000BB7113467B71BA79FB7911461846FFF7A7
:103660006FFAF860BA79FB7911461846FFF72EFA1F
:103670000346FB72BA79FB7911461846FFF7B8F991
:103680000346BB72FEF747FFFB681B8C9BB21A46D2
:10369000BB7A013B9B0042FA03F303F00103002BCA
:1036A00040F0B480FB7A012B06D1724B9B69714AC2
:1036B00043F4006393610AE06E4BDB69FA7A023AE5
:1036C000012101FA02F211466A4A0B43D361FB79E8
:1036D00098B2BB7999B202230022FDF78FFEFB68F6
:1036E00048F69F421A85BB7A013B032B2ED801A2D4
:1036F00052F823F00537000817370008293700086B
:103700003B370008FB681B8B9BB243F001039AB266
:10371000FB681A831AE0FB681B8B9BB243F480732F
:103720009AB2FB681A8311E0FB689B8B9BB243F053
:1037300001039AB2FB689A8308E0FB689B8B9BB2FB
:1037400043F480739AB2FB689A8300BFFB689B893D
:103750009BB21AB2BB7A012101FA03F31BB21343E5
:103760001BB29AB2FB689A81FB681B8C9BB21AB29F
:10377000BB7A013B9B00012101FA03F31BB2134307
:103780001BB29AB2FB681A84FB68B3F844309BB250
:103790006FEA43436FEA53439AB2FB68A3F84420AD
:1037A000FB681B889BB243F001039AB2FB681A8046
:1037B000FB7A013B032B27D801A252F823F000BF6C
:1037C000D1370008DF370008ED370008FB37000865
:1037D000294B1B68284A43F00063136014E0264B12
:1037E0001B68254A43F0805313600DE0224B1B6891
:1037F000214A43F00053136006E01F4B1B681E4A2A
:1038000043F08043136000BFFEF77EFE7B79002B00
:1038100011D0FB681B8C9BB21AB2BB7A013B9B0098
:103820000133012101FA03F31BB213431BB29AB215
:10383000FB681A8412E0FB681B8C9BB21AB2BB7A3D
:10384000013B9B000133012101FA03F31BB2DB436F
:103850001BB213401BB29AB2FB681A843B689BB23E
:103860005B009BB2013B9AB2FB689A8500BF1037A0
:10387000BD4680BD0010024000E100E080B586B08A
:1038800000AF03460A46FB711346BB71BA79FB7958
:1038900011461846FFF754F9386100237B61002375
:1038A000FB60BA79FB7911461846FFF7A1F8034689
:1038B000FB72FB7A013B032B1FD801A252F823F0C5
:1038C000D1380008DB380008E5380008EF38000878
:1038D0003B699B8E9BB27B610FE03B691B8F9BB268
:1038E0007B610AE03B699B8F9BB27B6105E03B6992
:1038F000B3F840309BB27B6100BF3B691B8D9BB22C
:10390000FB607B69FA6802FB03F3064A82FB031241
:103910001A449211DB17D31A7B617B69184618375A
:10392000BD4680BD49B4C2E680B584B000AF034651
:103930000A46FB711346BB71BA79FB7911461846EA
:10394000FFF79CFF0346064A82FB03129211DB1726
:10395000D31AFB60FB6818461037BD4680BD00BF18
:10396000D34D621080B400AF62B600BFBD4680BCCC
:10397000704780B400AF72B600BFBD4680BC7047D0
:1039800080B584B000AF03463960FB80FB8839689E
:10399000184600F0E1F8F8606A4B9B69694A43F009
:1039A00001039361FB88012B40D1FFF7E2FF654BD8
:1039B0009B69644A43F480439361022303220921F3
:1039C0000120FDF71BFD022300220A210120FDF743
:1039D00015FD5D4BFA6892B21A815B4B9B899BB2D5
:1039E000594A43F008039BB29381574B9B899BB282
:1039F000554A43F004039BB29381534B9B899BB27E
:103A0000514A43F400539BB293814F4B9B899BB225
:103A10004D4A43F020039BB293814C4B5B684B4A69
:103A200043F020035360FFF79DFF86E0FB88022BE5
:103A300040D1FFF79EFF434BDB69424A43F400331A
:103A4000D3610223032202210120FDF7D7FC0223C8
:103A5000002203210120FDF7D1FC3D4BFA6892B210
:103A60001A813B4B9B899BB2394A43F008039BB2B6
:103A70009381374B9B899BB2354A43F004039BB239
:103A80009381334B9B899BB2314A43F400539BB2E1
:103A900093812F4B9B899BB22D4A43F020039BB20D
:103AA00093812A4B5B68294A43F040035360FFF738
:103AB00059FF42E0FB88032B3FD1FFF75AFF214B10
:103AC000DB69204A43F48023D361022303220A21C5
:103AD0000220FDF793FC022300220B210220FDF7B8
:103AE0008DFC1C4BFA6892B21A811A4B9B899BB2CF
:103AF000184A43F008039BB29381164B9B899BB2F3
:103B0000144A43F004039BB29381124B9B899BB2EE
:103B1000104A43F400539BB293810E4B9B899BB296
:103B20000C4A43F020039BB29381084B5B68074A21
:103B300043F080035360FFF715FF00BF1037BD4609
:103B400080BD00BF001002400038014000E100E0ED
:103B5000004400400048004090B589B000AF0346E3
:103B60003960FB80304BFB61304B7B614FF07E5303
:103B70003B61FB88012B03D12D4BFB612D4B7B61FE
:103B80003B681B01FA69B2FBF3F3FB613B681B0165
:103B9000184601F073F803461946786901F07AF97E
:103BA00003461C46F86901F069F8034619462046A9
:103BB00000F0B2FF03464FF08341184601F0B6F81B
:103BC00003467B61786901F0B3FA0346BB61B869CB
:103BD00001F054F803461946786900F09DFF03464A
:103BE0001549184601F0A2F803463B6113493869AC
:103BF00001F058FA0346002B0AD0BB690133BB61C0
:103C0000BB69102B04D10023BB61FB690133FB614D
:103C1000FB691B01FB60FA68BB691344FB60FB682E
:103C200018462437BD4690BD005125024054094C2A
:103C300000A24A044054894C0000C8420000484297
:103C400080B485B000AF0346FB80FB88012B0CD10C
:103C500000BF184B1B889BB203F02003002BF8D049
:103C6000144B9B889BB2FB730EE0FB88022B0BD19D
:103C700000BF114B1B889BB203F02003002BF8D030
:103C80000D4B9B889BB2FB73FB88032B0BD100BFB2
:103C90000A4B1B889BB203F02003002BF8D0074B84
:103CA0009B889BB2FB73FB7B18461437BD4680BCD8
:103CB000704700BF00380140004400400048004009
:103CC00080B483B000AF03460A46FB8013467B7185
:103CD000FB88012B0CD100BF174B1B889BB203F054
:103CE0008003002BF8D0144B7A7992B29A800EE0C0
:103CF000FB88022B0BD100BF104B1B889BB203F03B
:103D00008003002BF8D00D4B7A7992B29A80FB8811
:103D1000032B0BD100BF0A4B1B889BB203F080031F
:103D2000002BF8D0064B7A7992B29A8000BF0C37FC
:103D3000BD4680BC704700BF0038014000440040D1
:103D40000048004090B585B000AF0346B9607A6086
:103D5000FB81BB6804331B88002B38D1BB681B88F0
:103D60001A467B689C18FB891846FFF769FF0346D3
:103D70002370BB6806331B88002B1AD0BB681B88D6
:103D80001A467B6813441B789AB2BB6808331B88B9
:103D90009A4207D1BB6800221A80BB680233012215
:103DA0001A8020E0BB681B8801339AB2BB681A8076
:103DB00019E0BB681B8801339AB2BB681A80BB68E4
:103DC0000C33BA6852891A80FEF720FB0BE0BB68FF
:103DD00004331C88FB891846FFF732FF0346194657
:103DE0002046FFF76DFF00BF1437BD4690BD80B57C
:103DF00084B000AF03463960FB800023FB600BE01A
:103E0000FB683A6813441A78FB8811461846FFF796
:103E100057FFFB680133FB60FB683A6813441B786B
:103E2000002BEDD100BF00BF1037BD4680BD80B56F
:103E300086B000AF0346B9607A60FB81124B7B61AC
:103E4000FB89B9681846FFF7D2FF02E07B69013BA6
:103E50007B617B6802331B88002B0CBF012300238E
:103E6000DAB27B69002B14BF01230023DBB21340BD
:103E7000DBB2002BEAD17B68023300221A8000BF3C
:103E80001837BD4680BD00BF0054EA2A80B586B011
:103E900000AF1A4A1A4BD31A7B60194B7B61194B3E
:103EA0003B610023FB600AE03A69531C3B617B697C
:103EB000591C796112781A70FB680133FB60FA684B
:103EC0007B689A42F0D3104A104BD31A7B600F4B99
:103ED0007B610023BB6007E07B695A1C7A6100228A
:103EE0001A70BB680133BB60BA687B689A42F3D32F
:103EF000FEF7E8F800BF1837BD4680BD5804002023
:103F000000000020905100083405002058040020D3
:103F100080B400AFFEE700BF70B54FF0FF0C4CF46B
:103F2000E06C1CEA11541DBF1CEA135594EA0C0FF7
:103F300095EA0C0F00F0DEF82C4481EA030621EA32
:103F40004C5123EA4C5350EA013518BF52EA03356D
:103F500041F4801143F4801338D0A0FB02CE4FF01F
:103F60000005E1FB02E506F00042E0FB03E54FF04F
:103F70000006E1FB03569CF0000F18BF4EF0010E47
:103F8000A4F1FF04B6F5007F64F5407404D25FEA43
:103F90004E0E6D4146EB060642EAC62141EA5551F6
:103FA0004FEAC52040EA5E504FEACE2EB4F1FD0C38
:103FB00088BFBCF5E06F1ED8BEF1004F08BF5FEAB6
:103FC000500E50F1000041EB045170BD06F0004668
:103FD00046EA010140EA020081EA0301B4EB5C0415
:103FE000C2BFD4EB0C0541EA045170BD41F480110D
:103FF0004FF0000E013C00F3AB8014F1360FDEBF32
:10400000002001F0004170BDC4F10004203C35DA0D
:104010000C341BDC04F11404C4F1200500FA05F390
:1040200020FA04F001FA05F240EA020001F0004231
:1040300021F0004110EBD37021FA04F642EB0601A7
:104040005EEA430E08BF20EAD37070BDC4F10C04D1
:10405000C4F1200500FA04F320FA05F001FA04F295
:1040600040EA020001F0004110EBD37041F1000181
:104070005EEA430E08BF20EAD37070BDC4F120058C
:1040800000FA05F24EEA020E20FA04F301FA05F2F4
:1040900043EA020321FA04F001F0004121FA04F29C
:1040A00020EA020000EBD3705EEA430E08BF20EA6C
:1040B000D37070BD94F0000F0FD101F000464000A6
:1040C00041EB010111F4801F08BF013CF7D041EA28
:1040D000060195F0000F18BF704703F0004652002C
:1040E00043EB030313F4801F08BF013DF7D043EAFD
:1040F0000603704794EA0C0F0CEA135518BF95EAB3
:104100000C0F0CD050EA410618BF52EA4306D1D139
:1041100081EA030101F000414FF0000070BD50EA58
:10412000410606BF1046194652EA430619D094EAE2
:104130000C0F02D150EA013613D195EA0C0F05D1CC
:1041400052EA03361CBF104619460AD181EA030120
:1041500001F0004141F0FE4141F470014FF00000D8
:1041600070BD41F0FE4141F4780170BD4FF0FF0C8D
:104170001CEAD0521EBF1CEAD15392EA0C0F93EAFC
:104180000C0F6FD01A4480EA010C400218BF5FEA9E
:1041900041211ED04FF0006343EA501043EA511111
:1041A000A0FB01310CF00040B1F5000F3EBF49000B
:1041B00041EAD3715B0040EA010062F17F02FD2A0F
:1041C0001DD8B3F1004F40EBC25008BF20F00100F2
:1041D000704790F0000F0CF0004C08BF49024CEA09
:1041E000502040EA51207F3AC2BFD2F1FF0340EA9B
:1041F000C250704740F400004FF00003013A5DDC0C
:1042000012F1190FDCBF00F000407047C2F100024C
:10421000410021FA02F1C2F1200200FA02FC5FEA39
:10422000310040F1000053EA4C0308BF20EADC7083
:10423000704792F0000F00F0004C02BF400010F4F5
:10424000000F013AF9D040EA0C0093F0000F01F0A2
:10425000004C02BF490011F4000F013BF9D041EAC4
:104260000C018FE70CEAD15392EA0C0F18BF93EAC6
:104270000C0F0AD030F0004C18BF31F0004CD8D1F0
:1042800080EA010000F00040704790F0000F17BF77
:1042900090F0004F084691F0000F91F0004F14D0BD
:1042A00092EA0C0F01D142020FD193EA0C0F03D115
:1042B0004B0218BF084608D180EA010000F0004018
:1042C00040F0FE4040F40000704740F0FE4040F4F3
:1042D0004000704781F0004102E000BF83F00043DE
:1042E00030B54FEA41044FEA430594EA050F08BF91
:1042F00090EA020F1FBF54EA000C55EA020C7FEA55
:10430000645C7FEA655C00F0E2804FEA5454D4EBD1
:104310005555B8BF6D420CDD2C4480EA020281EA9B
:10432000030382EA000083EA010180EA020281EAD3
:104330000303362D88BF30BD11F0004F4FEA013125
:104340004FF4801C4CEA113102D0404261EB410134
:1043500013F0004F4FEA03334CEA133302D05242BA
:1043600063EB430394EA050F00F0A780A4F1010476
:10437000D5F1200E0DDB02FA0EFC22FA05F28018B0
:1043800041F1000103FA0EF2801843FA05F3594196
:104390000EE0A5F120050EF1200E012A03FA0EFC15
:1043A00028BF4CF0020C43FA05F3C01851EBE3713F
:1043B00001F0004507D54FF0000EDCF1000C7EEB5C
:1043C00000006EEB0101B1F5801F1BD3B1F5001F9A
:1043D0000CD349085FEA30004FEA3C0C04F10104B9
:1043E0004FEA445212F5800F80F09A80BCF1004FE2
:1043F00008BF5FEA500C50F1000041EB045141EA64
:10440000050130BD5FEA4C0C404141EB0101013C2C
:1044100028BFB1F5801FE9D291F0000F04BF01461B
:104420000020B1FA81F308BF2033A3F10B03B3F1ED
:1044300020020CDA0C3208DD02F1140CC2F10C027D
:1044400001FA0CF021FA02F10CE002F11402D8BFDB
:10445000C2F1200C01FA02F120FA0CFCDCBF41EAA7
:104460000C019040E41AA2BF01EB0451294330BD76
:104470006FEA04041F3C1CDA0C340EDC04F1140453
:10448000C4F1200220FA04F001FA02F340EA03002A
:1044900021FA04F345EA030130BDC4F10C04C4F170
:1044A000200220FA02F001FA04F340EA0300294650
:1044B00030BD21FA04F0294630BD94F0000F83F49A
:1044C000801306BF81F480110134013D4EE77FEA7D
:1044D000645C18BF7FEA655C29D094EA050F08BFC9
:1044E00090EA020F05D054EA000C04BF19461046AA
:1044F00030BD91EA030F1EBF0021002030BD5FEAEE
:10450000545C05D14000494128BF41F0004130BD15
:1045100014F580043CBF01F5801130BD01F0004569
:1045200045F0FE4141F470014FF0000030BD7FEADC
:10453000645C1ABF194610467FEA655C1CBF0B46D7
:10454000024650EA013406BF52EA033591EA030FEE
:1045500041F4002130BD00BF90F0000F04BF0021E6
:10456000704730B54FF4806404F132044FF0000519
:104570004FF0000150E700BF90F0000F04BF002192
:10458000704730B54FF4806404F1320410F00045F8
:1045900048BF40424FF000013EE700BF42004FEAF3
:1045A000E2014FEA31014FEA02701FBF12F07F4370
:1045B00093F07F4F81F06051704732F07F4208BF27
:1045C000704793F07F4F04BF41F40021704730B52E
:1045D0004FF4607401F0004521F000411CE700BF7A
:1045E00050EA010208BF704730B54FF000050AE0FD
:1045F00050EA010208BF704730B511F0004502D5FE
:10460000404261EB41014FF4806404F132045FEAFF
:10461000915C3FF4D8AE4FF003025FEADC0C18BFA8
:1046200003325FEADC0C18BF033202EBDC02C2F19A
:10463000200300FA03FC20FA02F001FA03FE40EA2C
:104640000E0021FA02F11444BDE600BF70B54FF030
:10465000FF0C4CF4E06C1CEA11541DBF1CEA13550E
:1046600094EA0C0F95EA0C0F00F0DEF82C4481EA76
:10467000030621EA4C5123EA4C5350EA013518BF96
:1046800052EA033541F4801143F4801338D0A0FB83
:1046900002CE4FF00005E1FB02E506F00042E0FB30
:1046A00003E54FF00006E1FB03569CF0000F18BF36
:1046B0004EF0010EA4F1FF04B6F5007F64F54074DE
:1046C00004D25FEA4E0E6D4146EB060642EAC62171
:1046D00041EA55514FEAC52040EA5E504FEACE2EDE
:1046E000B4F1FD0C88BFBCF5E06F1ED8BEF1004FE1
:1046F00008BF5FEA500E50F1000041EB045170BD5D
:1047000006F0004646EA010140EA020081EA0301A0
:10471000B4EB5C04C2BFD4EB0C0541EA045170BD9C
:1047200041F480114FF0000E013C00F3AB8014F116
:10473000360FDEBF002001F0004170BDC4F100045F
:10474000203C35DA0C341BDC04F11404C4F12005E0
:1047500000FA05F320FA04F001FA05F240EA02003B
:1047600001F0004221F0004110EBD37021FA04F671
:1047700042EB06015EEA430E08BF20EAD37070BD2B
:10478000C4F10C04C4F1200500FA04F320FA05F08A
:1047900001FA04F240EA020001F0004110EBD3708C
:1047A00041F100015EEA430E08BF20EAD37070BDFC
:1047B000C4F1200500FA05F24EEA020E20FA04F3D5
:1047C00001FA05F243EA020321FA04F001F0004184
:1047D00021FA04F220EA020000EBD3705EEA430EF5
:1047E00008BF20EAD37070BD94F0000F0FD101F024
:1047F0000046400041EB010111F4801F08BF013C5D
:10480000F7D041EA060195F0000F18BF704703F09A
:104810000046520043EB030313F4801F08BF013D21
:10482000F7D043EA0603704794EA0C0F0CEA1355DD
:1048300018BF95EA0C0F0CD050EA410618BF52EA97
:104840004306D1D181EA030101F000414FF000009D
:1048500070BD50EA410606BF1046194652EA4306AB
:1048600019D094EA0C0F02D150EA013613D195EA1F
:104870000C0F05D152EA03361CBF104619460AD167
:1048800081EA030101F0004141F0FE4141F4700171
:104890004FF0000070BD41F0FE4141F4780170BD61
:1048A00070B54FF0FF0C4CF4E06C1CEA11541DBFC6
:1048B0001CEA135594EA0C0F95EA0C0F00F0A7F8C8
:1048C000A4EB050481EA030E52EA03354FEA0131F5
:1048D00000F088804FEA03334FF0805545EA131308
:1048E00043EA12634FEA022245EA111545EA1065D0
:1048F0004FEA00260EF000419D4208BF964244F167
:10490000FD0404F5407402D25B084FEA3202B61A85
:1049100065EB03055B084FEA32024FF480104FF459
:10492000002CB6EB020E75EB030E22BFB61A7546CD
:1049300040EA0C005B084FEA3202B6EB020E75EB60
:10494000030E22BFB61A754640EA5C005B084FEAC8
:104950003202B6EB020E75EB030E22BFB61A754695
:1049600040EA9C005B084FEA3202B6EB020E75EBA0
:10497000030E22BFB61A754640EADC0055EA060E61
:1049800018D04FEA051545EA16754FEA06164FEAA4
:10499000C30343EA52734FEAC2025FEA1C1CC0D150
:1049A00011F4801F0BD141EA00014FF000004FF0DD
:1049B000004CB6E711F4801F04BF01430020B4F19E
:1049C000FD0C88BFBCF5E06F3FF6AFAEB5EB030C56
:1049D00004BFB6EB020C5FEA500C50F1000041EB53
:1049E000045170BD0EF0004E4EEA113114EB5C0420
:1049F000C2BFD4EB0C0541EA045170BD41F48011F3
:104A00004FF0000E013C90E645EA060E8DE60CEAFA
:104A1000135594EA0C0F08BF95EA0C0F3FF43BAF17
:104A200094EA0C0F0AD150EA01347FF434AF95EACE
:104A30000C0F7FF425AF104619462CE795EA0C0FB2
:104A400006D152EA03353FF4FDAE1046194622E77F
:104A500050EA410618BF52EA43067FF4C5AE50EA59
:104A600041047FF40DAF52EA43057FF4EBAE12E749
:104A70004FEA4102B2F1E04324BFB3F5001CDCF180
:104A8000FE5C0DD901F0004C4FEAC0024CEA5070B8
:104A9000B2F1004F40EB830008BF20F001007047E7
:104AA00011F0804F21D113F13872BCBF01F00040EA
:104AB000704741F480114FEA5252C2F11802C2F11C
:104AC000200C10FA0CF320FA02F018BF40F001009D
:104AD0004FEAC1234FEAD32303FA0CFC40EA0C004F
:104AE00023FA02F34FEA4303CCE77FEA625307D18C
:104AF00050EA01331EBF4FF0FE4040F440007047C3
:104B000001F0004040F0FE4040F40000704700BF5C
:104B100080F0004002E000BF81F0004142001FBF72
:104B20005FEA410392EA030F7FEA226C7FEA236C7B
:104B30006AD04FEA1262D2EB1363C1BFD218414070
:104B400048404140B8BF5B42192B88BF704710F006
:104B5000004F40F4000020F07F4018BF404211F0A9
:104B6000004F41F4000121F07F4118BF494292EA11
:104B7000030F3FD0A2F1010241FA03FC10EB0C003D
:104B8000C3F1200301FA03F100F0004302D54942CA
:104B900060EB4000B0F5000F13D3B0F1807F06D377
:104BA00040084FEA310102F10102FE2A51D2B1F16F
:104BB000004F40EBC25008BF20F0010040EA030064
:104BC0007047490040EB0000013A28BFB0F5000FE4
:104BD000EDD2B0FA80FCACF1080CB2EB0C0200FA9A
:104BE0000CF0AABF00EBC25052421843BCBFD040E9
:104BF0001843704792F0000F81F4000106BF80F463
:104C000000000132013BB5E74FEA41037FEA226C25
:104C100018BF7FEA236C21D092EA030F04D092F0F0
:104C2000000F08BF0846704790EA010F1CBF002024
:104C3000704712F07F4F04D1400028BF40F0004081
:104C4000704712F100723CBF00F50000704700F0A1
:104C5000004343F0FE4040F4000070477FEA2262C8
:104C600016BF08467FEA23630146420206BF5FEA99
:104C7000412390EA010F40F4800070474FF0000399
:104C800004E000BF10F0004348BF40425FEA000C60
:104C900008BF704743F0964301464FF000001CE008
:104CA00050EA010208BF70474FF000030AE000BF5E
:104CB00050EA010208BF704711F0004302D540429C
:104CC00061EB41015FEA010C02BF8446014600200E
:104CD00043F0B64308BFA3F18053A3F50003BCFA29
:104CE0008CF2083AA3EBC25310DB01FA02FC6344D6
:104CF00000FA02FCC2F12002BCF1004F20FA02F2DD
:104D000043EB020008BF20F00100704702F12002CF
:104D100001FA02FCC2F1200250EA4C0021FA02F230
:104D200043EB020008BF20EADC7070474FF0FF0C35
:104D30001CEAD0521EBF1CEAD15392EA0C0F93EA30
:104D40000C0F6FD01A4480EA010C400218BF5FEAD2
:104D500041211ED04FF0006343EA501043EA511145
:104D6000A0FB01310CF00040B1F5000F3EBF49003F
:104D700041EAD3715B0040EA010062F17F02FD2A43
:104D80001DD8B3F1004F40EBC25008BF20F0010026
:104D9000704790F0000F0CF0004C08BF49024CEA3D
:104DA000502040EA51207F3AC2BFD2F1FF0340EACF
:104DB000C250704740F400004FF00003013A5DDC40
:104DC00012F1190FDCBF00F000407047C2F1000281
:104DD000410021FA02F1C2F1200200FA02FC5FEA6E
:104DE000310040F1000053EA4C0308BF20EADC70B8
:104DF000704792F0000F00F0004C02BF400010F42A
:104E0000000F013AF9D040EA0C0093F0000F01F0D6
:104E1000004C02BF490011F4000F013BF9D041EAF8
:104E20000C018FE70CEAD15392EA0C0F18BF93EAFA
:104E30000C0F0AD030F0004C18BF31F0004CD8D124
:104E400080EA010000F00040704790F0000F17BFAB
:104E500090F0004F084691F0000F91F0004F14D0F1
:104E600092EA0C0F01D142020FD193EA0C0F03D149
:104E70004B0218BF084608D180EA010000F000404C
:104E800040F0FE4040F40000704740F0FE4040F427
:104E9000400070474FF0FF0C1CEAD0521EBF1CEAC6
:104EA000D15392EA0C0F93EA0C0F69D0A2EB0302E4
:104EB00080EA010C49024FEA402037D04FF080537E
:104EC00043EA111143EA10130CF000408B4238BF43
:104ED0005B0042F17D024FF4000C8B4224BF5B1A51
:104EE00040EA0C00B3EB510F24BFA3EB510340EA9F
:104EF0005C00B3EB910F24BFA3EB910340EA9C004D
:104F0000B3EBD10F24BFA3EBD10340EADC001B01BC
:104F100018BF5FEA1C1CE0D1FD2A3FF650AF8B4260
:104F200040EBC25008BF20F0010070470CF0004C6D
:104F30004CEA50207F32C2BFD2F1FF0340EAC25098
:104F4000704740F400004FF00003013A37E792F059
:104F5000000F00F0004C02BF400010F4000F013AB7
:104F6000F9D040EA0C0093F0000F01F0004C02BFB2
:104F7000490011F4000F013BF9D041EA0C0195E71B
:104F80000CEAD15392EA0C0F08D142027FF47DAFB4
:104F900093EA0C0F7FF470AF084676E793EA0C0FA4
:104FA00004D14B023FF44CAF08466EE730F0004CA2
:104FB00018BF31F0004CCAD130F000427FF45CAF32
:104FC00031F000437FF43CAF5FE700BF4FF0FF3CA0
:104FD00006E000BF4FF0010C02E000BF4FF0010CF3
:104FE0004DF804CD4FEA40024FEA41037FEA226CBC
:104FF00018BF7FEA236C11D001B052EA530C18BFDE
:1050000090EA010F58BFB2EB030088BFC81738BF42
:105010006FEAE17018BF40F0010070477FEA226C30
:1050200002D15FEA402C05D17FEA236CE4D15FEA2C
:10503000412CE1D05DF8040B704700BF8446084660
:105040006146FFE70FB5FFF7C9FF002848BF10F121
:10505000000F0FBD4DF808EDFFF7F4FF0CBF012066
:1050600000205DF808FB00BF4DF808EDFFF7EAFFF0
:1050700034BF012000205DF808FB00BF4DF808EDAB
:10508000FFF7E0FF94BF012000205DF808FB00BFA0
:105090004DF808EDFFF7D2FF94BF012000205DF826
:1050A00008FB00BF4DF808EDFFF7C8FF34BF012033
:1050B00000205DF808FB00BF4FEA40024FEA4103C1
:1050C0007FEA226C02D15FEA402C08D17FEA236C90
:1050D00002D15FEA412C02D14FF0000070474FF03F
:1050E000010070474FEA4002B2F1FE4F0FD34FF07C
:1050F0009E03B3EB12620DD94FEA002343F0004345
:1051000010F0004F23FA02F018BF404270474FF0F2
:105110000000704712F1610F01D1420205D110F079
:10512000004008BF6FF0004070474FF0000070472C
:1051300042000ED2B2F1FE4F0BD34FF09E03B3EB01
:10514000126209D44FEA002343F0004323FA02F02D
:1051500070474FF00000704712F1610F01D1420219
:1051600002D14FF0FF3070474FF00000704700BF92
:10517000FFE6DB2E0000000000000000FFE6DB2E53
:105180000000803F00000000000000000000803FA1
:0451900000F01EB855
:1051940038B5044600F0A2F8214605462046FFF73C
:1051A40089FF20B920460021FFF75CFF08B9284693
:1051B40038BD00F0F9F92122034600211A6008469F
:0C51C400FFF766FE0546284638BD00BF18
:1051D00070B521F00045B5F1FF4F0A4603462CDCBF
:1051E00020F00046B6F1FF4F844626DCB1F17E5F29
:1051F00035D08C1704F0020444EAD07416B33DB3E2
:10520000B5F1FF4F33D0B6F1FF4F21D0751BB5F18B
:10521000F45F4FEAE55028DA002933DA3C3031DA1E
:105220000020012C3FD0022C35D02CB12449FFF7AF
:1052300075FC2449FFF770FC70BD19461046FFF756
:105240006DFC70BD022C08D0032CF5D11E4870BD3A
:10525000BCF1000F07DB1D4870BD1A4870BDBDE8EA
:10526000704000F095B81A4870BD1848D9E7B6F1FB
:10527000FF4F04F1FF3419D0022C1DD8154B53F801
:10528000240070BD11461846FFF704FE00F08AF9AD
:1052900000F07EF8C5E70A49FFF740FC01460948DF
:1052A000FFF73AFC70BD00F1004070BD022C05D83C
:1052B000094B53F8240070BD002070BD074870BD35
:1052C0002EBDBB33DB0F4940DB0F49C0DB0FC93FAD
:1052D000DB0FC9BFC4550008B8550008DB0F493FB4
:1052E00020F00042B2F1FF4F10B5044634D292B321
:1052F0000028034642DB10F0FF4F4FEAE05432D063
:105300000021A4F17F00E2074FF0190C4FEA60047E
:105310004FF080720846C3F3160343F4000358BFEE
:105320005B005B0000EB020E9E4504DC0EEB02000E
:10533000A3EB0E031144BCF1010C4FEA43034FEA07
:105340005202EFD113B1013121F00101481000F1F7
:105350007C5000EBC45010BD0146FFF7E7FC21462E
:10536000FFF7DCFB10BD10F400020ED15B00180249
:10537000114602F10102F9D5641AC1E70146FFF7AF
:10538000CBFB0146FFF786FD10BD4FF0FF31F3E781
:105390002DE9F04120F00045B5F1A14F0446074644
:1053A00007DBB5F1FF4F71DC00287FDD6948BDE800
:1053B000F081694B9D427CDCB5F1445F6BDB4FF0C3
:1053C000FF3821462046FFF7B1FC01460646FFF7AD
:1053D000ADFC05466149FFF7A9FC6149FFF79EFB5B
:1053E0002946FFF7A3FC5F49FFF798FB2946FFF723
:1053F0009DFC5D49FFF792FB2946FFF797FC5B494F
:10540000FFF78CFB2946FFF791FC5949FFF786FB14
:105410003146FFF78BFC574906462846FFF786FCC6
:105420005549FFF779FB2946FFF780FC5349FFF701
:1054300073FB2946FFF77AFC5149FFF76DFB2946BC
:10544000FFF774FC4F49FFF767FB2946FFF76EFC37
:10545000B8F1FF3F0146304641D0FFF75FFB2146E0
:10546000FFF764FC484B53F82810FFF755FB214623
:10547000FFF752FB454B014653F82800FFF74CFB62
:10548000002F94DA00F10040BDE8F0810146FFF7FB
:1054900045FBBDE8F0813E49FFF740FB4FF07E51F0
:1054A000FFF700FE00288AD0204680E73948BDE893
:1054B000F08100F077F8384B04469D421ADCA3F5E2
:1054C000D0039D4238DD4FF07E51FFF725FB4FF0B2
:1054D000010803464FF07E5120461C461CE0FFF7B2
:1054E0001DFB2146FFF722FC01462046FFF714FB77
:1054F000BDE8F081294B9D4216DC4FF07F51FFF74C
:105500000BFB03464FF07F5120464FF002081C462C
:10551000FFF70CFC4FF07E51FFF700FB01462046E1
:10552000FFF7B8FC04464CE701461D48FFF7B2FC04
:105530004FF00308044644E70146FFF7EFFA4FF047
:105540007E51FFF7E9FA4FF0000803464FF0804123
:105550002046C2E7DB0FC93FFFFFDF3ED769853C2E
:1055600059DA4B3D356B883D6E2EBA3D2549123ECA
:10557000ABAAAA3E21A215BD6BF16E3D95879D3D5C
:10558000388EE33DCDCC4C3EE0550008D0550008A8
:10559000CAF24971DB0FC9BFFFFF973FFFFF1B40F6
:0455A000000080BFC8
:0855A40020F00040704700BF39
:0C55AC00014B1868704700BF2800002069
:0C55B800DB0F49BFE4CB1640E4CB16C06B
:0C55C40000000080DB0F4940DB0F49C0F5
:1055D0003863ED3EDA0F493F5E987B3FDA0FC93FF3
:1055E0006937AC3168212233B40F14336821A233F8
:0455F0003000002067
:1055F4000000803F00000000000000000000803F29
:1056040000401C450000A0410000204200007A44F4
:105614000000704101000000300000200000000084
:10562400000000001C03002084030020EC03002081
:105634000000000000000000000000000000000066
:105644000000000000000000000000000000000056
:105654000000000000000000000000000000000046
:105664000000000000000000000000000000000036
:105674000000000000000000000000000000000026
:105684000000000000000000000000000000000016
:105694000000000000000000000000000000000006
:1056A40000000000000000000000000000000000F6
:1056B40000000000000000000000000000000000E6
:1056C40000000000000000000100000000000000D5
:1056D4000E33CDAB34126DE6ECDE05000B0000009A
:1056E40000000000000000000000000000000000B6
:1056F40000000000000000000000000000000000A6
:105704000000000000000000000000000000000095
:105714000000000000000000000000000000000085
:0400000508003E8D24
:00000001FF
